:020000040800F2
:1000000000000220D9020008CD1C0008DB1C0008FB
:10001000E11C0008E71C0008ED1C000800000000BF
:10002000000000000000000000000000F31C0008B9
:10003000011D0008000000000F1D00081D1D000824
:1000400029030008290300082903000829030008E0
:1000500029030008290300082903000829030008D0
:1000600029030008290300082903000829030008C0
:1000700029030008290300082903000829030008B0
:1000800029030008290300082903000829030008A0
:100090002903000829030008290300082903000890
:1000A0002903000829030008290300082903000880
:1000B0002903000829030008290300082903000870
:1000C0002903000829030008290300082903000860
:1000D0002903000829030008290300082903000850
:1000E0002903000829030008000000002903000874
:1000F0002903000829030008290300082903000830
:10010000290300082903000829030008290300081F
:10011000290300082903000829030008290300080F
:1001200029030008290300082903000829030008FF
:1001300029030008290300082903000829030008EF
:1001400000000000000000000000000000000000AF
:1001500029030008290300082903000829030008CF
:1001600029030008290300082903000829030008BF
:1001700029030008290300082903000800000000E3
:10018000290300082903000829030008290300089F
:10019000290300082903000829030008290300088F
:1001A000290300082903000829030008290300087F
:1001B000290300082903000829030008290300086F
:1001C000290300082903000829030008290300085F
:1001D000290300082903000829030008290300084F
:1001E000290300082903000829030008290300083F
:1001F000290300082903000829030008290300082F
:10020000290300082903000829030008290300081E
:10021000290300082903000829030008290300080E
:100220002903000829030008290300080000000032
:100230002903000829030008000000002903000822
:1002400029030008290300082903000829030008DE
:1002500029030008290300082903000829030008CE
:1002600029030008290300082903000829030008BE
:1002700029030008290300082903000800000000E2
:1002800029030008290300082903000800000000D2
:08029000000000002903000832
:1002980010B5054C237833B9044B13B10448AFF3B8
:1002A80000800123237010BD100000200000000012
:1002B800441E000808B5034B1BB103490348AFF3BC
:1002C800008008BD0000000014000020441E000843
:1002D800DFF834D0002103E00C4B5B584350043165
:1002E8000B480C4B42189A42F6D30B4A02E0002303
:1002F80042F8043B094B9A42F9D301F011FD01F091
:1003080071FD01F0D5FA704700000220741E000844
:100318000000002010000020100000203000002005
:10032800FEE7000080B500AF032000F047F901F0B8
:10033800EBF80146134B9B691B0A03F00F03124AA3
:10034800D35C03F01F0321FA03F3104A13600F4B29
:100358001A680C4B9B6903F00F030B49CB5C03F045
:100368001F0322FA03F30A4A1360002000F012F870
:100378000346002B01D0012302E001F089FC002391
:10038800184680BD004402585C1E00080800002082
:100398000C00002080B582B000AF7860154B1B7848
:1003A800002B01D1012321E0134B1A68114B1B7854
:1003B80019464FF47A73B3FBF1F3B2FBF3F3184623
:1003C80000F021F90346002B01D001230EE07B68E1
:1003D8000F2B0AD8002279684FF0FF3000F0F9F8A7
:1003E800064A7B681360002300E00123184608379B
:1003F800BD4680BD04000020080000200000002049
:1004080080B400AF064B1B781A46064B1B68134492
:10041800044A136000BFBD465DF8047B704700BF07
:10042800040000202C00002080B400AF034B1B68A0
:100438001846BD465DF8047B704700BF2C000020BD
:1004480080B400AF034B1B681B0C1846BD465DF813
:10045800047B70470010005C80B485B000AF786002
:100468007B6803F00703FB600B4BDB68BB60BA6873
:100478004FF6FF031340BB60FB681A02BB681A43C0
:10048800064B1343BB60044ABB68D36000BF1437F4
:10049800BD465DF8047B704700ED00E00000FA05FA
:1004A80080B400AF044BDB681B0A03F0070318464F
:1004B800BD465DF8047B704700ED00E080B483B072
:1004C80000AF03463960FB80B7F90630002B0ADB22
:1004D8003B68DAB20C49B7F906301201D2B20B44C4
:1004E80083F800230AE03B68DAB20849FB8803F086
:1004F8000F03043B1201D2B20B441A7600BF0C372B
:10050800BD465DF8047B704700E100E000ED00E0C7
:1005180080B489B000AFF860B9607A60FB6803F016
:100528000703FB61FB69C3F10703042B28BF0423FE
:10053800BB61FB690433062B02D9FB69033B00E06E
:1005480000237B614FF0FF32BB6902FA03F3DA4301
:10055800BB681A407B699A404FF0FF317B6901FA0A
:1005680003F3D9437B680B40134318462437BD4631
:100578005DF8047B7047000080B582B000AF7860FA
:100588007B68013BB3F1807F01D301230FE00A4A66
:100598007B68013B53600F214FF0FF30FFF78EFF60
:1005A800054B00229A60044B07221A600023184664
:1005B8000837BD4680BD00BF10E000E080B582B0BE
:1005C80000AF78607868FFF747FF00BF0837BD467F
:1005D80080BD80B586B000AF0346B9607A60FB8104
:1005E800FFF75EFF78617A68B9687869FFF790FF6E
:1005F8000246B7F90E3011461846FFF75FFF00BFF5
:100608001837BD4680BD80B582B000AF7860786885
:10061800FFF7B2FF034618460837BD4680BD000005
:1006280080B400AFBFF35F8F064B5B6A054A23F4C3
:1006380080335362044B00225A6000BFBD465DF808
:10064800047B704700ED00E090ED00E080B483B0DB
:1006580000AF78600A4A7B6843F001035360094B96
:100668005B6A084A43F480335362BFF34F8FBFF38A
:100678006F8F00BF0C37BD465DF8047B704700BF25
:1006880090ED00E000ED00E080B489B000AF786044
:1006980039600023FB61894B7B6194E13B681A68F0
:1006A8000121FB6901FA03F313403B613B69002B0D
:1006B80000F086813B685B68022B03D03B685B686F
:1006C800122B23D1FB69DA087B68083253F82230F1
:1006D800BB61FB6903F007039B000F2202FA03F3D7
:1006E800DB43BA691340BB613B681A69FB6903F0D5
:1006F80007039B0002FA03F3BA691343BB61FB6962
:10070800DA087B680832B96943F822107B681B68ED
:10071800BB61FB695B00032202FA03F3DB43BA699E
:100728001340BB613B685B6803F00302FB695B0035
:1007380002FA03F3BA691343BB617B68BA691A60AA
:100748003B685B68012B0BD03B685B68022B07D0CA
:100758003B685B68112B03D03B685B68122B30D178
:100768007B689B68BB61FB695B00032202FA03F3A9
:10077800DB43BA691340BB613B68DA68FB695B001D
:1007880002FA03F3BA691343BB617B68BA699A60DA
:100798007B685B68BB610122FB6902FA03F3DB43F8
:1007A800BA691340BB613B685B681B0903F001022F
:1007B800FB6902FA03F3BA691343BB617B68BA6940
:1007C8005A607B68DB68BB61FB695B00032202FA45
:1007D80003F3DB43BA691340BB613B689A68FB6962
:1007E8005B0002FA03F3BA691343BB617B68BA6919
:1007F800DA603B685B6803F08053002B00F0E08010
:100808002F4BD3F8F4302E4A43F00203C2F8F430E9
:100818002B4BD3F8F43003F00203FB60FB68294A42
:10082800FB699B08023352F82330BB61FB6903F074
:1008380003039B000F2202FA03F3DB43BA69134058
:10084800BB617B68204A934252D07B681F4A93421F
:1008580031D07B681E4A93422BD07B681D4A934255
:1008680025D07B681C4A93421FD07B681B4A934261
:1008780019D07B681A4A934213D07B68194A93426D
:100888000DD07B68184A934207D07B68174A934279
:1008980001D109232DE00A232BE0082329E00723AF
:1008A80027E0062325E0052323E0042321E0032392
:1008B8001FE002231DE001231BE000BF8000005859
:1008C800004402580004005800000258000402586E
:1008D80000080258000C0258001002580014025870
:1008E80000180258001C0258002002580024025820
:1008F8000023FA6902F0030292009340BA69134395
:10090800BB613849FB699B080233BA6941F8232067
:100918007B691B68BB613B69DB43BA691340BB61F8
:100928003B685B6803F48033002B03D0BA693B69EA
:100938001343BB617B69BA691A607B695B68BB61F9
:100948003B69DB43BA691340BB613B685B6803F4EE
:100958000033002B03D0BA693B691343BB617B6941
:10096800BA695A604FF0B0431B68BB613B69DB430F
:10097800BA691340BB613B685B6803F48013002BC2
:1009880003D0BA693B691343BB614FF0B042BB69FE
:1009980013604FF0B0435B68BB613B69DB43BA69E6
:1009A8001340BB613B685B6803F40013002B03D062
:1009B800BA693B691343BB614FF0B042BB695360EE
:1009C800FB690133FB613B681A68FB6922FA03F390
:1009D800002B7FF463AE00BF2437BD465DF8047B6F
:1009E800704700BF0004005880B584B000AF78603D
:1009F800184BDB6803F00403042B08D0154BDB68A5
:100A080003F007037A689A4201D001231DE0114BD5
:100A1800DB6823F007020F497B681343CB60FFF7BD
:100A280003FDF86009E0FFF7FFFC0246FB68D31AF4
:100A3800B3F57A7F01D9032307E0064B5B6803F41B
:100A48000053B3F5005FEED1002318461037BD46BA
:100A580080BD00BF0048025880B58AB000AF7860FA
:100A68007B68002B01D10123A4E37B681B6803F09A
:100A78000103002B00F087809A4B1B6903F03803B1
:100A88007B62984B9B6A3B627B6A102B07D07B6A20
:100A9800182B10D13B6A03F00303022B0BD1914BA7
:100AA8001B6803F40033002B6CD07B685B68002B59
:100AB80068D101237EE37B685B68B3F5803F06D18C
:100AC800884B1B68874A43F4803313602EE07B68A9
:100AD8005B68002B0CD1834B1B68824A23F480335C
:100AE8001360804B1B687F4A23F4802313601DE04A
:100AF8007B685B68B3F5A02F0CD17A4B1B68794AE9
:100B080043F480231360774B1B68764A43F48033A1
:100B180013600BE0734B1B68724A23F48033136035
:100B2800704B1B686F4A23F4802313607B685B68F3
:100B3800002B13D0FFF778FCF86108E0FFF774FC8E
:100B48000246FB69D31A642B01D9032332E3654BB0
:100B58001B6803F40033002BF0D014E0FFF764FCAB
:100B6800F86108E0FFF760FC0246FB69D31A642BC2
:100B780001D903231EE35B4B1B6803F40033002BEE
:100B8800F0D100E000BF7B681B6803F00203002B74
:100B980000F0B080534B1B6903F03803BB61514B25
:100BA8009B6A7B61BB69002B07D0BB69182B49D1B5
:100BB8007B6903F00303002B44D14A4B1B6803F005
:100BC8000403002B05D07B68DB68002B01D10123CF
:100BD800F0E2444B1B6823F019027B68DB6841494B
:100BE80013430B60FFF720FCF86108E0FFF71CFCDB
:100BF8000246FB69D31A022B01D90323DAE2394BE7
:100C08001B6803F00403002BF0D0FFF719FC024621
:100C180041F203039A420AD8324B5B6823F47C32D0
:100C28007B681B691B032F4913434B6062E02D4B04
:100C38005B6823F0FE427B681B691B062949134346
:100C48004B6057E07B68DB68002B38D0254B1B686E
:100C580023F019027B68DB68224913430B60FFF716
:100C6800E3FBF86108E0FFF7DFFB0246FB69D31AF4
:100C7800022B01D903239DE21A4B1B6803F00403DE
:100C8800002BF0D0FFF7DCFB024641F203039A4247
:100C98000AD8144B5B6823F47C327B681B691B03FE
:100CA800104913434B6025E00E4B5B6823F0FE426E
:100CB8007B681B691B060B4913434B601AE0094B01
:100CC8001B68084A23F001031360FFF7ADFBF861C6
:100CD8000AE0FFF7A9FB0246FB69D31A022B03D9E6
:100CE800032367E200440258A04B1B6803F0040387
:100CF800002BEED17B681B6803F01003002B00F07B
:100D08008F809A4B1B6903F038033B61974B9B6AB2
:100D1800FB603B69082B07D03B69182B2DD1FB687A
:100D280003F00303012B28D1904B1B6803F4807355
:100D3800002B05D07B68DB69802B01D0012339E2C9
:100D4800FFF77EFB024641F203039A420AD8874B1B
:100D58005B6823F0F8427B681B6A9B068349134350
:100D68004B605DE0814BDB6823F07C527B681B6A3B
:100D78001B067E491343CB6052E07B68DB69002B7E
:100D880035D07A4B1B68794A43F080031360FFF72C
:100D98004BFBF86108E0FFF747FB0246FB69D31AF3
:100DA800022B01D9032305E2704B1B6803F48073FF
:100DB800002BF0D0FFF744FB024641F203039A42AE
:100DC8000AD86A4B5B6823F0F8427B681B6A9B066B
:100DD800664913434B6023E0644BDB6823F07C5285
:100DE8007B681B6A1B0661491343CB6018E05F4BA5
:100DF8001B685E4A23F080031360FFF715FBF86158
:100E080008E0FFF711FB0246FB69D31A022B01D950
:100E18000323CFE1554B1B6803F48073002BF0D1FB
:100E28007B681B6803F00803002B36D07B685B697E
:100E3800002B19D04D4B5B6F4C4A43F001035367AD
:100E4800FFF7F2FAF86108E0FFF7EEFA0246FB69ED
:100E5800D31A022B01D90323ACE1444B5B6F03F097
:100E68000203002BF0D018E0404B5B6F3F4A23F0A1
:100E780001035367FFF7D8FAF86108E0FFF7D4FADF
:100E88000246FB69D31A022B01D9032392E1374B9F
:100E98005B6F03F00203002BF0D17B681B6803F043
:100EA8002003002B36D07B689B69002B19D02F4B71
:100EB8001B682E4A43F480531360FFF7B5FAF861B4
:100EC80008E0FFF7B1FA0246FB69D31A022B01D9F1
:100ED80003236FE1254B1B6803F40053002BF0D06C
:100EE80018E0224B1B68214A23F480531360FFF754
:100EF8009BFAF86108E0FFF797FA0246FB69D31AF4
:100F0800022B01D9032355E1184B1B6803F4005346
:100F1800002BF0D17B681B6803F00403002B00F062
:100F28008680134B1B68124A43F480731360FFF7E3
:100F38007BFAF86108E0FFF777FA0246FB69D31AF3
:100F4800642B01D9032335E1094B1B6803F4807333
:100F5800002BF0D07B689B68012B0BD1034B1B6FD8
:100F6800024A43F00103136732E000BF004402580D
:100F7800004802587B689B68002B0CD18F4B1B6F75
:100F88008E4A23F0010313678C4B1B6F8B4A23F0A7
:100F9800040313671CE07B689B68052B0CD1874B07
:100FA8001B6F864A43F004031367844B1B6F834A05
:100FB80043F0010313670BE0804B1B6F7F4A23F05C
:100FC800010313677D4B1B6F7C4A23F004031367EF
:100FD8007B689B68002B15D0FFF726FAF8610AE0BA
:100FE800FFF722FA0246FB69D31A41F2883293428C
:100FF80001D90323DEE0714B1B6F03F00203002BC2
:10100800EED014E0FFF710FAF8610AE0FFF70CFAE7
:101018000246FB69D31A41F28832934201D903236D
:10102800C8E0664B1B6F03F00203002BEED17B6810
:101038005B6A002B00F0BD80604B1B6903F038032E
:10104800182B00F0B4807B685B6A022B40F0958017
:101058005A4B1B68594A23F080731360FFF7E4F971
:10106800F86108E0FFF7E0F90246FB69D31A022BA2
:1010780001D903239EE0514B1B6803F00073002B3A
:10108800F0D14E4B9A6A4E4B13407A68916A7A684F
:10109800D26A12010A43494913438B627B681B6B6E
:1010A800013BC3F308027B685B6B013B5B029BB2AD
:1010B8001A437B689B6B013B1B0403F4FE031A4332
:1010C8007B68DB6B013B1B0603F0FE433B49134384
:1010D8000B633A4BDB6A394A23F00103D362374B7F
:1010E8005A6B384B13407A68926CD20033491343D9
:1010F8004B63324BDB6A23F00C027B681B6C2F4975
:101108001343CB622D4BDB6A23F002027B685B6CD6
:101118002A491343CB62294BDB6A284A43F48033BC
:10112800D362264BDB6A254A43F40033D362234B50
:10113800DB6A224A43F48023D362204BDB6A1F4ACE
:1011480043F00103D3621D4B1B681C4A43F08073B4
:101158001360FFF769F9F86108E0FFF765F90246DF
:10116800FB69D31A022B01D9032323E0134B1B6815
:1011780003F00073002BF0D01BE0104B1B680F4AE4
:1011880023F080731360FFF74FF9F86108E0FFF769
:101198004BF90246FB69D31A022B01D9032309E054
:1011A800064B1B6803F00073002BF0D101E001230C
:1011B80000E0002318462837BD4680BD0044025889
:1011C8000CFCFFFF0700FFFF80B584B000AF78601C
:1011D80039607B68002B01D101238BE18A4B1B68A6
:1011E80003F00F033A689A4210D9874B1B6823F023
:1011F8000F0285493B6813430B60834B1B6803F060
:101208000F033A689A4201D0012373E17B681B6897
:1012180003F00403002B10D07B681A697B4B9B6991
:1012280003F070039A4208D9784B9B6923F0700247
:101238007B681B69754913438B617B681B6803F0E6
:101248000803002B10D07B685A69704BDB6903F0E8
:1012580070039A4208D96D4BDB6923F070027B68F2
:101268005B696A491343CB617B681B6803F0100311
:10127800002B10D07B689A69644BDB6903F4E06348
:101288009A4208D9614BDB6923F4E0627B689B6969
:101298005E491343CB617B681B6803F02003002B76
:1012A80010D07B68DA69594B1B6A03F070039A42C5
:1012B80008D9564B1B6A23F070027B68DB695349D7
:1012C80013430B627B681B6803F00203002B10D0EA
:1012D8007B68DA684D4B9B6903F00F039A4208D983
:1012E8004A4B9B6923F00F027B68DB68474913432D
:1012F8008B617B681B6803F00103002B55D0434BBF
:101308009B6923F470627B689B68404913438B6137
:101318007B685B68022B07D13C4B1B6803F40033E6
:10132800002B21D10123E5E07B685B68032B07D103
:10133800364B1B6803F00073002B15D10123D9E04D
:101348007B685B68012B07D1304B1B6803F4807303
:10135800002B09D10123CDE02C4B1B6803F00403BB
:10136800002B01D10123C5E0284B1B6923F007029C
:101378007B685B68254913430B61FFF755F8F860F4
:101388000AE0FFF751F80246FB68D31A41F28832A7
:10139800934201D90323ADE01C4B1B6903F03802CB
:1013A8007B685B68DB009A42EBD17B681B6803F0C3
:1013B8000203002B10D07B68DA68144B9B6903F09A
:1013C8000F039A4208D2114B9B6923F00F027B68E6
:1013D800DB680E4913438B610B4B1B6803F00F034B
:1013E8003A689A4214D2084B1B6823F00F02064948
:1013F8003B6813430B60044B1B6803F00F033A6808
:101408009A4205D0012375E000200052004402589A
:101418007B681B6803F00403002B10D07B681A69F3
:10142800364B9B6903F070039A4208D2334B9B6991
:1014380023F070027B681B69304913438B617B681A
:101448001B6803F00803002B10D07B685A692B4BEC
:10145800DB6903F070039A4208D2284BDB6923F05A
:1014680070027B685B6925491343CB617B681B6805
:1014780003F01003002B10D07B689A691F4BDB69BF
:1014880003F4E0639A4208D21C4BDB6923F4E06260
:101498007B689B6919491343CB617B681B6803F020
:1014A8002003002B10D07B68DA69144B1B6A03F009
:1014B80070039A4208D2114B1B6A23F070027B68B2
:1014C800DB690E4913430B6200F01EF801460B4B13
:1014D8009B691B0A03F00F03094AD35C03F01F033F
:1014E80021FA03F3074A13600020FEF753FF03466F
:1014F800FB72FB7A18461037BD4680BD004402587F
:101508005C1E00080800002080B489B000AFB04B12
:101518001B6903F03803182B00F2508101A252F81E
:1015280023F000BF91150008C5170008C51700086B
:10153800C5170008C5170008C5170008C517000813
:10154800C5170008B7150008C5170008C517000813
:10155800C5170008C5170008C5170008C5170008F3
:10156800C5170008BD150008C5170008C5170008ED
:10157800C5170008C5170008C5170008C5170008D3
:10158800C5170008C3150008914B1B6803F020031A
:10159800002B09D08E4B1B68DB0803F003038D4A30
:1015A80022FA03F3BB610CE18A4BBB6109E18A4B68
:1015B800BB6106E1894BBB6103E1854B9B6A03F084
:1015C80003037B61824B9B6A1B0903F03F033B616A
:1015D8007F4BDB6A03F00103FB607D4B5B6BDB0831
:1015E800C3F30C03FA6802FB03F307EE903AF8EE34
:1015F800677AC7ED027A3B69002B00F0DC807B69D3
:10160800012B5CD07B69002B03D07B69022B78D03F
:1016180099E06F4B1B6803F02003002B2DD06C4B17
:101628001B68DB0803F003036A4A22FA03F37B60B2
:101638007B6807EE903AF8EE676A3B6907EE903AE6
:10164800F8EE677A86EEA77A614B1B6BC3F3080343
:1016580007EE903AF8EE676A97ED026ADFED605A96
:10166800C6EE257A76EEA77AF7EE006A77EEA67AC6
:1016780067EE277AC7ED077A87E03B6907EE903A6D
:10168800F8EE677ADFED576A86EEA77A504B1B6B48
:10169800C3F3080307EE903AF8EE676A97ED026A1B
:1016A800DFED4F5AC6EE257A76EEA77AF7EE006A96
:1016B80077EEA67A67EE277AC7ED077A65E03B6989
:1016C80007EE903AF8EE677ADFED476A86EEA77A7A
:1016D8003F4B1B6BC3F3080307EE903AF8EE676ABB
:1016E80097ED026ADFED3E5AC6EE257A76EEA77AC6
:1016F800F7EE006A77EEA67A67EE277AC7ED077AE3
:1017080043E03B6907EE903AF8EE677ADFED376A17
:1017180086EEA77A2E4B1B6BC3F3080307EE903AAD
:10172800F8EE676A97ED026ADFED2D5AC6EE257A64
:1017380076EEA77AF7EE006A77EEA67A67EE277A52
:10174800C7ED077A21E03B6907EE903AF8EE677A31
:10175800DFED256A86EEA77A1D4B1B6BC3F30803E2
:1017680007EE903AF8EE676A97ED026ADFED1C5AC9
:10177800C6EE257A76EEA77AF7EE006A77EEA67AB5
:1017880067EE277AC7ED077A00BF114B1B6B5B0A20
:1017980003F07F0301333B603B6807EE903AB8EEF5
:1017A800677AD7ED076AC6EE877AFCEEE77A17EE16
:1017B800903ABB6105E00023BB6102E0064BBB61C8
:1017C80000BFBB6918462437BD465DF8047B7047E7
:1017D800004402580090D00300093D0040787D0184
:1017E800000000460024744C0024744A20BCBE4B00
:1017F80080B400AFBFF34F8FBFF36F8F0B4B002246
:10180800C3F85022BFF34F8FBFF36F8F074B5B694D
:10181800064A43F400335361BFF34F8FBFF36F8F12
:1018280000BFBD465DF8047B704700BF00ED00E0D7
:1018380080B485B000AF1D4B0022C3F88420BFF3ED
:101848004F8F1A4BD3F880307B607B685B0BC3F3F8
:101858000E03FB607B68DB08C3F30903BB60FB680E
:101868005A0143F6E0731340BA6892070F491343CD
:10187800C1F86032BB685A1EBA60002BEFD1FB6812
:101888005A1EFA60002BE5D1BFF34F8F074B5B69F7
:10189800064A43F480335361BFF34F8FBFF36F8F12
:1018A80000BF1437BD465DF8047B704700ED00E0CB
:1018B80080B584B000AF0123FB600223BB60FA68E7
:1018C800BB6813447B607B685B007B6000F0D0F9E9
:1018D800FFF78EFFFFF7ACFFFEF724FD00F004F8DA
:1018E80000F06CF8FEE7000080B59CB000AF07F18F
:1018F80024034C220021184600F098FA3B1D2022B0
:101908000021184600F092FA0220FFF76DF8002334
:101918003B60284BDB6A274A23F00103D362254B3F
:10192800DB6A03F001033B60234B9B6923F44043CC
:10193800214A43F4804393611F4B9B6903F440435E
:101948003B603B6800BF1C4B9B6903F40053B3F535
:10195800005FF8D102237B6201233B6320237B6372
:101968000023BB6407F124031846FFF775F8034604
:10197800002B01D000F085F93F237B600023BB607A
:101988000023FB6000233B6100237B610023BB61D4
:101998000023FB6100233B623B1D00211846FFF733
:1019A80013FC0346002B01D000F06BF900BF703721
:1019B800BD4680BD000400580048025880B590B06C
:1019C80000AF07F12C0300221A605A609A60DA60AF
:1019D8001A619B4BD3F8E030994A43F48073C2F8FC
:1019E800E030974BD3F8E03003F48073BB62BB6AF6
:1019F800934BD3F8E030924A43F00203C2F8E03048
:101A08008F4BD3F8E03003F002037B627B6A8C4B88
:101A1800D3F8E0308A4A43F48063C2F8E030884B58
:101A2800D3F8E03003F480633B623B6A844BD3F81D
:101A3800E030834A43F04003C2F8E030804BD3F8EB
:101A4800E03003F04003FB61FB697D4BD3F8E030E5
:101A58007B4A43F00803C2F8E030794BD3F8E03012
:101A680003F00803BB61BB69754BD3F8E030744AD7
:101A780043F00403C2F8E030714BD3F8E03003F0D0
:101A880004037B617B696E4BD3F8E0306C4A43F00A
:101A98000103C2F8E0306A4BD3F8E03003F00103E9
:101AA8003B613B69664BD3F8E030654A43F010036D
:101AB800C2F8E030624BD3F8E03003F01003FB606B
:101AC800FB685F4BD3F8E0305D4A43F40073C2F81B
:101AD800E0305B4BD3F8E03003F40073BB60BB68C5
:101AE800574BD3F8E030564A43F08003C2F8E03051
:101AF800534BD3F8E03003F080037B607B68504B96
:101B0800D3F8E0304E4A43F02003C2F8E0304C4BA3
:101B1800D3F8E03003F020033B603B684FF6FF73D7
:101B2800FB6203233B6300237B6307F12C03194605
:101B38004448FEF7A9FD4FF6F773FB6203233B63A6
:101B480000237B6307F12C0319463F48FEF79CFDF1
:101B5800FF23FB6203233B6300237B6307F12C0312
:101B680019463A48FEF790FD4FF6FF73FB620323D0
:101B78003B6300237B6307F12C0319463448FEF7C7
:101B880083FD4FF6FF73FB6203233B6300237B63F4
:101B980007F12C0319462F48FEF776FD42F6FF732E
:101BA800FB6203233B6300237B6307F12C03194685
:101BB8002948FEF769FD4FF6C373FB6203233B63B5
:101BC80000237B6307F12C0319462448FEF75CFDCC
:101BD8004FF6FF73FB6203233B6300237B6307F12C
:101BE8002C0319461E48FEF74FFD4FF6FC73FB62A7
:101BF80003233B6300237B6307F12C031946194831
:101C0800FEF742FD41F6FF73FB6203233B630023AB
:101C18007B6307F12C0319461348FEF735FD4FF691
:101C2800FF73FB6203233B6300237B6307F12C03F1
:101C380019460E48FEF728FD00BF4037BD4680BD57
:101C48000044025800200258000402580028025894
:101C580000180258000C02580008025800100258D8
:101C680000240258001C02580000025800140258B0
:101C780080B500AFFEF7D4FC0220FEF7E7FC00BFFA
:101C880080BD80B400AF00BFBD465DF8047B7047DF
:101C980080B483B000AF0A4BD3F8F430084A43F05D
:101CA8000203C2F8F430064BD3F8F43003F0020311
:101CB8007B607B6800BF0C37BD465DF8047B7047CE
:101CC8000044025880B400AF00BFBD465DF8047BF5
:101CD800704780B400AFFEE780B400AFFEE780B481
:101CE80000AFFEE780B400AFFEE780B400AF00BFEE
:101CF800BD465DF8047B704780B400AF00BFBD46A9
:101D08005DF8047B704780B400AF00BFBD465DF846
:101D1800047B704780B500AFFEF772FB00BF80BD43
:101D280080B400AF294BD3F88830284A43F47003B5
:101D3800C2F88830264B1B68254A43F0010313601C
:101D4800234B00221A61224B1A682149214B134068
:101D58000B601F4B00229A611D4B0022DA611C4B5D
:101D680000221A621A4B00229A62194B0022DA6288
:101D7800174B00221A63164B00225A63144B002299
:101D88009A63134B0022DA63114B00221A64104B3A
:101D980000225A640E4B1B680D4A23F480231360FB
:101DA8000B4B00221A660C4B1A680C4B1340B3F10C
:101DB800005F02D20A4B01221A60044B4FF0006206
:101DC8009A6000BFBD465DF8047B704700ED00E0F7
:101DD800004402587FEDF6EA0010005C0000FFFFA7
:101DE8000881005170B50D4D0D4C641BA4100026E0
:101DF800A64209D10B4D0C4C00F020F8641BA4102E
:101E08000026A64205D170BD55F8043B9847013617
:101E1800EEE755F8043B98470136F2E76C1E0008D8
:101E28006C1E00086C1E0008701E00080244034661
:101E3800934200D1704703F8011BF9E7F8B500BFDA
:101E4800F8BC08BC9E467047F8B500BFF8BC08BC93
:041E58009E467047EB
:101E5C000000000001020304010203040607080944
:041E6C00BD020008AB
:041E700099020008CB
:101E740010000000010000000090D0030090D00387
:04000005080002D914
:00000001FF
